{
  "contractName": "KarlosWildPokemonLand",
  "abi": [
    {
      "inputs": [],
      "stateMutability": "nonpayable",
      "type": "constructor"
    },
    {
      "inputs": [
        {
          "internalType": "string",
          "name": "pokemonName",
          "type": "string"
        }
      ],
      "name": "catchPokemon",
      "outputs": [
        {
          "internalType": "string",
          "name": "",
          "type": "string"
        }
      ],
      "stateMutability": "nonpayable",
      "type": "function"
    },
    {
      "inputs": [
        {
          "internalType": "string",
          "name": "pokemonName",
          "type": "string"
        }
      ],
      "name": "isOwned",
      "outputs": [
        {
          "internalType": "bool",
          "name": "",
          "type": "bool"
        }
      ],
      "stateMutability": "view",
      "type": "function",
      "constant": true
    },
    {
      "inputs": [
        {
          "internalType": "string",
          "name": "pokemonName",
          "type": "string"
        }
      ],
      "name": "getOwner",
      "outputs": [
        {
          "internalType": "address",
          "name": "",
          "type": "address"
        }
      ],
      "stateMutability": "view",
      "type": "function",
      "constant": true
    }
  ],
  "bytecode": "0x608060405234801561001057600080fd5b506106b0806100206000396000f3fe608060405234801561001057600080fd5b50600436106100415760003560e01c80634aaf4a121461004657806378f1e7631461012b578063bc055ae51461025f575b600080fd5b6100ff6004803603602081101561005c57600080fd5b810190808035906020019064010000000081111561007957600080fd5b82018360208201111561008b57600080fd5b803590602001918460018302840111640100000000831117156100ad57600080fd5b91908080601f016020809104026020016040519081016040528093929190818152602001838380828437600081840152601f19601f820116905080830192505050505050509192919290505050610330565b604051808273ffffffffffffffffffffffffffffffffffffffff16815260200191505060405180910390f35b6101e46004803603602081101561014157600080fd5b810190808035906020019064010000000081111561015e57600080fd5b82018360208201111561017057600080fd5b8035906020019184600183028401116401000000008311171561019257600080fd5b91908080601f016020809104026020016040519081016040528093929190818152602001838380828437600081840152601f19601f8201169050808301925050505050505091929192905050506103c5565b6040518080602001828103825283818151815260200191508051906020019080838360005b83811015610224578082015181840152602081019050610209565b50505050905090810190601f1680156102515780820380516001836020036101000a031916815260200191505b509250505060405180910390f35b6103186004803603602081101561027557600080fd5b810190808035906020019064010000000081111561029257600080fd5b8201836020820111156102a457600080fd5b803590602001918460018302840111640100000000831117156102c657600080fd5b91908080601f016020809104026020016040519081016040528093929190818152602001838380828437600081840152601f19601f8201169050808301925050505050505091929192905050506105d1565b60405180821515815260200191505060405180910390f35b600080826040518082805190602001908083835b602083106103675780518252602082019150602081019050602083039250610344565b6001836020036101000a038019825116818451168082178552505050505050905001915050908152602001604051809103902060000160009054906101000a900473ffffffffffffffffffffffffffffffffffffffff169050919050565b6060816000816040518082805190602001908083835b602083106103fe57805182526020820191506020810190506020830392506103db565b6001836020036101000a038019825116818451168082178552505050505050905001915050908152602001604051809103902060000160149054906101000a900460ff1615610498576040517f08c379a00000000000000000000000000000000000000000000000000000000081526004018080602001828103825260278152602001806106546027913960400191505060405180910390fd5b336000846040518082805190602001908083835b602083106104cf57805182526020820191506020810190506020830392506104ac565b6001836020036101000a038019825116818451168082178552505050505050905001915050908152602001604051809103902060000160006101000a81548173ffffffffffffffffffffffffffffffffffffffff021916908373ffffffffffffffffffffffffffffffffffffffff16021790555060016000846040518082805190602001908083835b6020831061057b5780518252602082019150602081019050602083039250610558565b6001836020036101000a038019825116818451168082178552505050505050905001915050908152602001604051809103902060000160146101000a81548160ff02191690831515021790555082915050919050565b600080826040518082805190602001908083835b6020831061060857805182526020820191506020810190506020830392506105e5565b6001836020036101000a038019825116818451168082178552505050505050905001915050908152602001604051809103902060000160149054906101000a900460ff16905091905056fe5468697320706f6b656d6f6e2068617320616c7265616479206265656e2063617074757265642ea2646970667358221220f8c99a311767b6e4df94d5d546baf7eadab948e8f060a1b393b5ba6bceb6f25a64736f6c634300060c0033",
  "immutableReferences": {},
  "source": "// SPDX-License-Identifier: MIT\npragma solidity 0.6.12;\n\ncontract KarlosWildPokemonLand {\n  // Attributes\n\n  // Struct is a group of elements with a different data type, like a Record in typescript.\n  struct Owner {\n    address owner; // default value is a \"empty\" direction, \"0x0000...\"\n    bool owned; // default value is false\n  }\n\n  /*  A mapping is like a dictionary, e.g.\n  *   {\n  *       \"dragonite\": {owner: \"address\", owned: true}\n  *   }\n  */\n  mapping(string => Owner) ownership;\n\n\n  constructor() public {}\n\n  // Modifiers are used to modify the behaviour of a function.\n  modifier onlyAvailablePokemon(string memory pokemonName) {\n    require(!ownership[pokemonName].owned, \"This pokemon has already been captured.\");\n    _;\n  }\n\n\n  // function <name>(<parameters>) <access type> <modifier> <visibility> <return type>\n\n  // Catch pokemon function\n  function catchPokemon(string memory pokemonName) public onlyAvailablePokemon(pokemonName) returns (string memory) {\n    ownership[pokemonName].owner = msg.sender;\n    ownership[pokemonName].owned = true;\n\n    return pokemonName;\n  }\n\n  // Checks if the pokemon has already been caught\n  function isOwned(string memory pokemonName) public view returns (bool) {\n    return ownership[pokemonName].owned;\n  }\n\n  // Returns the current pokemon owner address.\n  function getOwner(string memory pokemonName) public view returns (address) {\n    return ownership[pokemonName].owner;\n  }\n\n}\n",
  "sourcePath": "/home/karlos/WebstormProjects/smart_contracts_demo/truffle/contracts/KarlosWildPokemonLand.sol",
  "compiler": {
    "name": "solc",
    "version": "0.6.12+commit.27d51765.Emscripten.clang"
  },
  "schemaVersion": "3.4.3",
  "updatedAt": "2021-09-26T22:35:55.369Z",
  "networkType": "ethereum",
  "devdoc": {
    "kind": "dev",
    "methods": {},
    "version": 1
  },
  "userdoc": {
    "kind": "user",
    "methods": {},
    "version": 1
  }
}